:100000000C945B060C9478060C9478060C94C93317
:100010000C9478060C9478060C9478060C94780668
:100020000C9478060C9478060C946E180C94961C1C
:100030000C94E0290C9478060C9478060C947806BD
:100040000C9478060C9478060C9478060C94780638
:100050000C9478060C9446190C9478060C94780647
:100060000C9478060C9478060C9478060C94780618
:100070000C9478060C9478060C9478060C94780608
:100080000C9478060C9478060C9478060C947806F8
:100090000C9478060C9478060C9478060C947806E8
:1000A0000C9478060C9478060C94780605010902E5
:1000B000A10185020901A1000509190129081500FE
:1000C0002501950875018102050109300931158165
:1000D000257F95027508810609381581257F9501D0
:1000E00075088106050C0A38021581257F95017572
:1000F000088106C0C005010980A101850319012AF4
:10010000B700150126B700950175108100C0050CD8
:100110000901A101850419012AA002150126A002E6
:10012000950175108100C005010906A1018506052C
:100130000719E029E71500250195087501810205D9
:1001400007190029EF1500250195F07501810205B9
:10015000081901290595057501910295017503910D
:1001600001C00660FF0961A1010962150026FF00B8
:100170009520750881020963150026FF00952075FA
:10018000089102C005010906A101050719E029E748
:1001900015002501950875018102950175088101F9
:1001A0000507190029FF150026FF0095067508812F
:1001B000000508190129051500250195057501910E
:1001C00002950175039101C00000000000000000CD
:1001D000000000000000000000000000000000001F
:1001E0000000000000000000000000007E0F00D4AE
:1001F000FFFFFFC7000000780000000000000000C3
:100200002A2B280000000000000000000000000071
:1002100000000029000000002C1E3420212224347C
:100220002627252E362D3738271E1F20212223244E
:1002300025263333362E37381F0405060708090AEA
:100240000B0C0D0E0F101112131415161718191A86
:100250001B1C1D2F3130232D350405060708090A04
:100260000B0C0D0E0F101112131415161718191A66
:100270001B1C1D2F3130354C20202020616263640F
:1002800065666768696A6B6C6D6E6F7071727374A6
:1002900075767778797A3132333435363738393084
:1002A000524542545F2D3D5B5D5C233B27602C2E05
:1002B0002F20202000DA0281FFD9F1DB20A4A62E16
:1002C000AF00A0C0D30000A1C8D30000AED580A865
:1002D0001F408D1420001E0F0500047F3F1F643255
:1002E00014643214783C1E1E140A05556E6465664B
:1002F000004D6973630053796D626F6C004E756DCC
:100300002026204E61760042617365004C6179655C
:10031000723A20003A002C206B00780080818283A2
:100320008485868788898A8B8C8D8E8F9091929315
:1003300094A0A1A2A3A4A5A6A7A8A9AAABACADAE60
:10034000AFB0B1B2B3B4C0C1C2C3C4C5C6C7C8C9D7
:10035000CACBCCCDCECFD0D1D2D3D40000010101B5
:100360000101010101010202020202020202020372
:100370000303030303030304040404040404050542
:100380000505050606060606070707070708080805
:1003900008090909090A0A0A0B0B0B0C0C0C0D0DB4
:1003A0000D0E0E0E0F0F0F1010111111121213134C
:1003B0001414151516161717181819191A1A1B1BC5
:1003C0001C1D1D1E1E1F2020212222232424252621
:1003D00026272829292A2B2C2D2D2E2F3031323259
:1003E000333435363738393A3B3C3D3E3F40414265
:1003F000434445464748494A4C4D4E4F505153544B
:10040000555658595A5B5D5E5F61626465666869FE
:100410006B6C6D6F7072737577787A7B7D7E80827E
:10042000838587888A8C8E8F91939596989A9C9EC7
:10043000A0A2A3A5A7A9ABADAFB1B3B5B7BABCBED7
:10044000C0C2C4C6C9CBCDCFD1D4D6D8DBDDDFE2A4
:10045000E4E7E9EBEEF0F3F5F8FAFDFFFFAA7F55CC
:10046000402223252628292A2C2D2F3032333536B9
:10047000383A3B3D3E4042434547494A4C4E505135
:10048000535557595A5C5E6062646668696B6D6F5C
:1004900071737577797B7D7F81838587898A8C8E5F
:1004A00090929496989A9C9E9FA1A3A5A7A8AAAC67
:1004B000AEAFB1B3B4B6B8B9BBBCBEBFC1C2C3C5A1
:1004C000C6C7C9CACBCCCDCED0D1D2D2D3D4D5D643
:1004D000D7D7D8D9D9DADADBDBDBDCDCDCDCDCDD76
:1004E000DDDDDDDCDCDCDCDCDBDBDBDADAD9D9D85A
:1004F000D7D7D6D5D4D3D2D2D1D0CECDCCCBCAC9F2
:10050000C7C6C5C3C2C1BFBEBCBBB9B8B6B4B3B120
:10051000AFAEACAAA8A7A5A3A19F9E9C9A989694BB
:1005200092908E8C8A89878583817F7D7B79777590
:1005300073716F6D6B6968666462605E5C5A59576F
:10054000555351504E4C4A4947454342403E3D3B2E
:100550003A3836353332302F2D2C2A2928262523B8
:100560002200AF00AE2B0014001A0008001500177F
:1005700000E00004001600070009000A00E1001D69
:10058000001B00060019000500000000000000E349
:1005900000777C2C002A00130012000C0018001CAD
:1005A00000340033000F000E000D000B00167C38E5
:1005B000003700360010001100000000000000E6C7
:1005C00000787C28002B001E001F00200021002244
:1005D00000E00000000000A800AA00A900E100005F
:1005E000000000000000000000000000000000E328
:1005F0000001002C002A00270026002500240023EB
:10060000004A004B004F005200510050004D004E78
:1006100000AB00AE00AC000000000000000000E6EF
:1006200000010028002B001E021F022002210222CE
:1006300002E00000000000000000000000E10000F7
:10064000000000000000000000000000000000E3C7
:100650000001002C002A0027022602250224022382
:10066000023500310030002F002E002D0035023100
:100670000230022F022E022D02000000000000E6D0
:100680000001002800007C000000000000000000C5
:10069000002078237825782778000000002178242E
:1006A000782678287800000000000000000000E3B1
:1006B0000001002C000000000000000000DA00D261
:1006C0000000000000D000CD00CE00CF00000000F0
:1006D0000000000000D900D100000000000000E68A
:1006E000000100280009025B00030100A0FA0904D0
:1006F0000000010301010009211101000122440051
:10070000070581030800010904010002030000003D
:1007100009211101000122220007058203200001A6
:100720000705030320000109040200010300000083
:1007300009211101000122B60007058403200001F0
:1007400012010002000000085346010001000102EE
:1007500000010C0343006F0072006E006500000092
:10076000100366006F006F007300740061006E007C
:100770000000040309040000000000003E5B4F5B22
:100780003E003E6B4F6B3E001C3E7C3E1C00183C06
:100790007E3C18001C577D571C001C5E7F5E1C00B1
:1007A00000183C180000FFE7C3E7FF0000182418FA
:1007B0000000FFE7DBE7FF0030483A060E0026297D
:1007C00079292600407F05050700407F05253F0069
:1007D0005A3CE73C5A007F3E1C1C0800081C1C3E8B
:1007E0007F0014227F2214005F5F005F5F00060914
:1007F0007F017F00006689956A006060606060002C
:1008000094A2FFA2940008047E04080010207E2019
:10081000100008082A1C0800081C2A0808001E10DE
:10082000101010000C1E0C1E0C0030383E3830002A
:10083000060E3E0E060000000000000000005F00F3
:100840000000000700070000147F147F1400242A12
:100850007F2A120023130864620036495620500094
:10086000000807030000001C224100000041221C78
:1008700000002A1C7F1C2A0008083E08080000808F
:1008800070300000080808080800000060600000E0
:100890002010080402003E5149453E0000427F40BE
:1008A00000007249494946002141494D330018145E
:1008B000127F10002745454539003C4A494931001F
:1008C000412111090700364949493600464949295D
:1008D0001E0000001400000000403400000000086A
:1008E00014224100141414141400004122140800AE
:1008F0000201590906003E415D594E007C12111259
:100900007C007F49494936003E41414122007F41F8
:1009100041413E007F49494941007F0909090100E1
:100920003E41415173007F0808087F0000417F412C
:1009300000002040413F01007F08142241007F4019
:10094000404040007F021C027F007F0408107F00AF
:100950003E4141413E007F09090906003E415121C7
:100960005E007F09192946002649494932000301E2
:100970007F0103003F4040403F001F2040201F00F8
:100980003F4038403F0063140814630003047804B8
:1009900003006159494D4300007F41414100020479
:1009A00008102000004141417F00040201020400C0
:1009B00040404040400000030708000020545478A5
:1009C00040007F28444438003844444428003844D8
:1009D00044287F0038545454180000087E0902004F
:1009E0001824241C78007F080404780000447D400B
:1009F00000002040403D00007F10284400000041DE
:100A00007F4000007C04780478007C0804047800AF
:100A10003844444438007C1824241800182424182E
:100A20007C007C0804040800485454542400040446
:100A30003F4424003C4040207C001C2040201C00FF
:100A40003C4030403C004428102844004C9090909A
:100A50007C004464544C440000083641000000000F
:100A60007700000000413608000002010204020085
:100A70003C2623263C00000000000000000000008F
:100A8000000000000000C0E0F0F8F81800C0F0FC22
:100A9000FEFFFFFFFFFFFFFF7E00000000000000E1
:100AA000000080C0E0E0E0E0E0E0E0E0C0800000C6
:100AB000000080C0E0E0E0E0E0E0E0E0C0800000B6
:100AC00000E0E0C0C0E0E0E0E00000E0E0C0C0E046
:100AD000E0E0E0E0C0800000000080C0E0E0E0E096
:100AE000E0E0E0E0C0800000000000000000000046
:100AF00000000000E0F0F0F0E0ECEEF7F370200012
:100B00007C7C7C7E007E7E7E7F7F7F000080C0E0DC
:100B10007E5B4F5BFEC00000C000DCD7DEDEDED7B0
:100B2000DC00C00000000000000000000000000029
:100B3000000000000000000000000000000000F8BD
:100B4000FCFEFFE000FFFFFFFFFFFF80FFFFFFFF56
:100B5000FFFFFFFFFF1F0701000000000000000073
:100B600000FFFFFF8100000000000081C3C3C3003D
:100B700000FFFFFF8100000000000081FFFFFF0079
:100B800000FFFFFF01000000000000FFFFFF010069
:100B900000000001FFFFFF0000FFFFFF9D1C1C1C69
:100BA0001C1C1C9DDFDFDF000000000000000000B7
:100BB000000000000F1F3F7F7F7F7F7F3F1E0C00E4
:100BC0001F1F1F3F003F3F3F7F7F7F00307B7F78AD
:100BD00030202030787F3B0003000F7F0F0F0F7F06
:100BE0000F000300000000000000000000000000F3
:100BF00000000000000000000000000000000003F2
:100C00000F1F3F3F3F3F1F1F3F3F7F7F7F3F3F1FE4
:100C10003F7F7F7F7F7C7878381C0F0000000000CA
:100C20000000010307070707070707070301000084
:100C30000000010307070707070707070301000074
:100C4000000707070000000000000007070700007A
:100C5000000000000707070000000103070707075F
:100C60000707070703010000000000000000000064
:100C70000000000000000000000000000000000074
:100C80000000000000000000000000000000000064
:100C90000000000000000000000000000000000054
:100CA0000000000000000000000000000000000044
:100CB00000000000000011241FBECFEFDAE0DEBF0D
:100CC000CDBF27E0AAEDB1E001C01D92AE31B20761
:100CD000E1F711E0A0E0B1E0E2EFFEE602C005902E
:100CE0000D92AA3DB107D9F70E94072A0C9410373C
:100CF0000C940000982FE0910F054091D60457E026
:100D0000E41302C080E008952E2F30E05E9FF001D2
:100D10001124E952FB4F8181681306C0808198132A
:100D200003C085818111EFCFF9013196E770E8CFDB
:100D3000FC01AC014C5F5F4F8FEF91E32191822763
:100D400028E030E087FF09C0880F8927215031094A
:100D5000C9F7E417F50791F70895880FF7CFE8ED85
:100D6000F0E080818E7F80831092E2001092DA00A2
:100D70001092E100A0EEB0E08C9181608C938081B4
:100D80008F77808319BCA7EDB0E08C918E7F8C9318
:100D900080818F7E80831092BF0408952091E400AB
:100DA0003091E50095E6A9012091EC00822F817039
:100DB00020FF06C08091E80080FF06C080E0089513
:100DC0002091E80022FD1AC08091CC04882389F08C
:100DD000853089F08091EB0085FD0FC02091E40003
:100DE0003091E50042175307F9F29150E1F684E0A3
:100DF000089582E0089583E0089581E00895809148
:100E0000CE0487FF13C08091E80082FF06C0809166
:100E1000E8008B778093E80004C08091CC048111B6
:100E2000F2CF08958091CC048823D9F38091E80013
:100E300080FFF8CF8091E8008E77ECCF982F9093C9
:100E4000E900242F762F50E0891731F07091EC00E3
:100E50002091ED005091F00021FD07C09F5F973079
:100E600071F78093E90081E008953091EB003E7FB7
:100E70003093EB003091ED003D7F3093ED003091E9
:100E8000EB0031603093EB007093EC002093ED00A9
:100E90005093F0002091EE0027FDE0CF80E0089510
:100EA000B0E0A0E0E6E5F7E00C940435C8EDD0E052
:100EB00088818F7E8883E7EDF0E080818160808388
:100EC00084E082BF81E08093BF0488818E7F888325
:100ED00002EE10E0F80110821092DA0081EEC82EC6
:100EE000D12CF601108288818F7788838881806871
:100EF000888388818F7D888319BC1092CC041092DE
:100F0000CD041092CB041092CA0490EEE92EF12C7D
:100F1000F70180818B7F808388818160888342E0B4
:100F200060E080E00E941E07F60180818E7F808352
:100F3000F801808181608083808188608083F701EF
:100F400080818E7F8083888180618883CDB7DEB782
:100F5000E8E00C942035FC01CB012091D4043091C1
:100F6000D5042617370790F0009729F42091E80060
:100F70002E772093E80040E0009751F4411108C01B
:100F80008091E80082FF31C080E00895C901F3CF6D
:100F90002091CC042223A9F12530A9F12091E80069
:100FA00023FD2DC02091E80022FDEACF2091E8002A
:100FB00020FFE2CF3091F3002091F200009719F06A
:100FC0002830310558F041E02830310509F040E083
:100FD0002091E8002E772093E800CECF41914093F6
:100FE000F10001972F5F3F4FE9CF8091CC04882318
:100FF00041F0853041F08091E80083FFC1CF81E06E
:10100000089582E0089583E008958091C1040895D1
:1010100087E797E7909301088093000888E19AE0BA
:101020000FB6F894A895809360000FBE909360006F
:10103000FFCFA4E0B0E0EFE1F8E00C940A358FB701
:10104000F8942091BB043091BC044091BD045091B0
:10105000BE0429833A834B835C838FBF69817A8185
:101060008B819C812496E2E00C942635909154016A
:101070009923E1F09091B80497FF18C0E82FE69506
:10108000E695E695803FF0F4F0E0EC51FE4F877076
:1010900021E030E0A90102C0440F551F8A95E2F714
:1010A000CA0180959281892382830895EEEDF1E053
:1010B0009191891303C0DF0111971C9251E0E43E26
:1010C000F507B1F70895909154019923C1F09091DB
:1010D000B80497FF14C0E82FE695E695E695803FA3
:1010E000F8F4F0E0EC51FE4F877021E030E001C0F1
:1010F000220F8A95EAF78281822B82830895AEEDD2
:10110000B1E0EFEF90E02D91821751F0EF3F19F42D
:10111000211101C0E92F9F5F9630A9F7EF3F09F435
:1011200008950E2E000CFF0BE452FE4FE6CFA3E015
:10113000B0E0EDE9F8E00C940A359C018091B6042A
:101140009091B70482179307A1F03093B7042093CE
:10115000B604E091B404F091B504309751F084E006
:1011600089833B832A830084F185E02DCE0101969B
:1011700009952396E2E00C942635A3E0B0E0E3EC79
:10118000F8E00C940A359C018091B2049091B3046C
:1011900082179307A1F03093B3042093B204E09137
:1011A000B404F091B504309751F083E089833B8318
:1011B0002A830084F185E02DCE01019609952396BE
:1011C000E2E00C9426358091B004882359F0E09138
:1011D000B404F091B504309729F00190F081E02D2E
:1011E0000995089580E008958091A50480FD16C0BA
:1011F00081FD16C082FD16C08091A4048823A1F051
:10120000883280F428E0829FC001112468E270E0F7
:101210000E944B35862F672B39F0089582E00895A0
:1012200084E0089588E0089581E008958091A50400
:1012300080FD14C081FD14C082FD16C08091A304FE
:10124000882381F08E3180F420E5829FC001112433
:101250006EE170E00E944B35862F089584E1089579
:1012600088E2089588E0089580E50895282F35EBF9
:101270002303C001112497FF04C080589109892FCE
:10128000089580589F4FFBCFFA01882311F00995EC
:101290000895FB01FCCF0895EFEDF2E01182828109
:1012A00084608283089580919504982F9C7F61F4D7
:1012B000837084608093950480919804833318F040
:1012C00082E38093980408958C3AB0F38370886A1F
:1012D000F1CFB0E0A0E0EFE6F9E00C940235082F82
:1012E000162FE901433308F042E3E42FF0E0E45A1B
:1012F000FC4F11110BC0E4915E2F4E2F4983E88300
:101300005A83CDB7DEB7EAE00C941E35212F30E0CA
:10131000449186E0089F60011124EE24EA94F12CA8
:10132000C601B7010E94E634802F90E0880F991F14
:1013300055E5569FF001579FF00D11248E1B9F0B12
:10134000982F990F890FF701E21BF30B4E9FD001E5
:101350004F9FB00D1124EB2F189F80011124012FF6
:1013600011275701A01AB10A4A9D80014B9D100D0B
:101370001124512F5701A81AB108A29EC001A39EA3
:10138000900DB29E900D1124892F9927E81AF90A21
:101390004E9DC0014F9D900D112463307105D1F019
:1013A0002CEFC21623E0D20670F461307105B1F063
:1013B00062307105B9F02FEFC216D10408F09ECF4C
:1013C0005B2FE92F9BCF6430710579F06630710592
:1013D000B9F394CFE12F542F4B2F90CFE42F412F0F
:1013E0005B2F8CCF592FE42FF7CF542F492F86CF67
:1013F00080E00895F894E82FE295EF70F0E041A1C5
:101400008F7021E030E0B90102C0660F771F8A9526
:10141000E2F7CB01962F9095942391A392A1892B6B
:1014200082A378940895A4E0B0E0E9E1FAE00C9496
:101430000A358091B004882371F00E9419086983ED
:101440007A838B839C8369817A818B819C812496AA
:10145000E2E00C9426350E94190869837A838B8315
:101460009C838091850290918602A0918702B09121
:10147000880229813A814B815C81280F391F4A1FDC
:101480005B1F29833A834B835C83DDCF9091B80443
:1014900092FF10C041E0282F2471243009F040E071
:1014A00031E0282F2871283009F030E0431711F07F
:1014B0002CE0822793FF10C041E0282F24712431B3
:1014C00009F040E031E0282F2871283109F030E0A0
:1014D000431711F02CE082273091B90430FF10C07F
:1014E00051E0282F2171213009F050E041E0282FF0
:1014F0002871283009F040E0541711F029E08227C4
:1015000031FF10C041E0282F2171213109F040E066
:1015100031E0282F2871283109F030E0431711F00D
:1015200029E0822794FD877E0895803E9105C1F1D0
:10153000C8F48133910509F47DC048F489329105DE
:1015400009F46DC08A32910509F47BC0089589338E
:101550009105D1F082389105B9F08533910509F4F0
:1015600059C00895843E9105C1F138F4823E910539
:1015700021F1833E910531F10895863E9105C1F137
:10158000873E9105E1F108952091B804237009F098
:1015900065C02091B90423FF14C089E290E008954A
:1015A0002091B80420FD43C03091B90430FF09C038
:1015B00024FF4EC090E080E008952091B80422FD01
:1015C000F7CF08952091B80422FD45C03091B904A9
:1015D00030FD44C024FFF5CFEDCF2091B90421FFA9
:1015E000F0CF8091B80484FDE5CF87EE90E00895B8
:1015F0002091B80423FFE5CF24FDDCCFF6CF209166
:10160000B80423FD2EC03091B90431FFE3CF84EE3E
:1016100090E008952091B80425FFD3CFBECF20914C
:10162000B80425FD21C02091B90423FFCACF89E366
:1016300090E0C7CF2091B80426FFC3CF8AE290E0A4
:1016400008952091B80426FFBCCF81E390E008956F
:1016500083EE90E0089582EE90E0089580EE90E0B1
:10166000089586EE90E0089585E390E008951F9335
:10167000CF93DF930E94950AEC018115924508F003
:101680005FC0C11580E5D80708F0DDC0C03ED105B8
:1016900038F5CD3CD10508F0AEC0C83AD10580F48C
:1016A000C53AD10508F0A4C0C130D10509F443C042
:1016B000CE010497813A9105F0F1D0E0C0E03BC043
:1016C000CE01885A91094B97C0F7C85AD0E0CC0F89
:1016D000DD1FCB5ADE4F0990D881C02DD4642BC0BA
:1016E000C11590E4D907F0F4C11520E2D20708F043
:1016F000C4C0C83ED105F8F0CE019A9581159F412E
:10170000E0F68D2F0E94460A182FCE0199270E94DD
:10171000950AC12FD0E0DC2FCC27CC27DF71C82B56
:10172000D92B09C0CE0199270E94950ACC27DF70DA
:10173000C82BD92BD06ACE01DF91CF911F9108958C
:10174000C03882E5D807B8F5C03692E5D90708F069
:101750005BC0C03422E5D207C8F4C03282E5D807A6
:1017600008F04BC02C2F2695269590E2299F9001DA
:1017700011248C2F8370C1E0D0E002C0CC0FDD1F9C
:101780008A95E2F7C22BD32BDD68D5CF2C2F269577
:101790002695277080E2289F900111248C2F83705A
:1017A000C1E0D0E002C0CC0FDD1F8A95E2F7C22B6A
:1017B000D32BDC68C0CFC03C92E5D90760F48C2FF6
:1017C0008F71C03AD245A8F5C82FD0E0DC2FCC27C6
:1017D000C46FD06AB0CFCE01805C9245809708F08C
:1017E0006CCFDC2FCC27CC27DF71C06FD06AA3CFA2
:1017F000A497D064A0CFD0659ECFCF71D0E0DC2F6E
:10180000CC27C16FD06A97CF2C2F269526952770AD
:1018100080E2289F900111248C2F8370C1E0D0E0DA
:1018200002C0CC0FDD1F8A95E2F7C22BD32BDA68FA
:1018300082CF0E94460AC82FD0E0DC2FCC27CC27CD
:10184000DF71D06278CF8C2F8F710E94460A55E0ED
:10185000D695C7955A95E1F7CF70D0E0DC2FCC270D
:10186000282F30E084FF05C044E0220F331F4A9543
:10187000E1F7C22BD32BD0695ECF8D2F8F710E94E1
:10188000460A182FCE0199270E94950AC12FD0E051
:10189000DC2FCC27CC27DF71C82BD92BD2CF982FA8
:1018A000909580914A02892380934A0208958091FD
:1018B0004A0290912102892B90912002992391F064
:1018C000892B90915401992371F09091B80497FF5E
:1018D0000AC09EE126EE31E040E0915040F4411113
:1018E00010922002089596E02EED31E0F5CFF90137
:1018F00051919F01552389F34F5FEFCF80910F05E1
:101900009091D604981301C008958F5F8770FACF25
:10191000292F983078F5863068F590E036E0239FDF
:10192000800D911D1124682F677023E0969587958F
:101930002A95E1F7FC01EE0FFF1FE80FF91FEA5FA0
:10194000FD4F50E040E080E0219130E0062E02C0E3
:10195000369527950A94E2F721703327042E01C0AB
:10196000220F0A94EAF7822B4F5F5F4F43305105F5
:1019700059F7089580E00895292F983090F5863022
:1019800080F590E036E0239F800D911D1124282FD3
:10199000277041E001C0440F2A95EAF723E09695AD
:1019A00087952A95E1F7FC01EE0FFF1FE80FF91F5D
:1019B000EA5FFD4F90E080E070E05191DF01119708
:1019C0009B01082E02C0369527950A94E2F72170F4
:1019D00021952527242325272C93019683309105D3
:1019E00061F708958093A00208959091A00221E0EC
:1019F00030E0F90101C0EE0F8A95EAF7D90102C083
:101A0000AA0FBB1F6A95E2F7EA2B01C0220F4A9585
:101A1000EAF7892F8E23E81305C0292B822F0E9415
:101A2000F20C089520952923F9CF21E030E001C080
:101A3000220F8A95EAF720958091A00282230E94C6
:101A4000F20C089590911F028095892380931F02C4
:101A5000282F277069F4891759F09091B90492FFE3
:101A600007C08695869586950E94150D10921F02D7
:101A7000089521E030E001C0220F8A95EAF78091B5
:101A8000A002822B0E94F20C089580934B020895CD
:101A9000982F82958F7011F0982F84E0292F26952A
:101AA000269511F08E5F922F969509F08F5F08951D
:101AB000CF93DF93682F81E06A3019F06D3031F4F5
:101AC00080E00E94E60DDF91CF91089580911C0780
:101AD00090911D0726E0FC01A6E1B7E001900D9270
:101AE0002A95E1F7603E08F458C026E0FC01119207
:101AF0002A95E9F7C0911C07D0911D0746E050E0F8
:101B0000BE0186E197E00E943F369E012651354096
:101B1000892B41F1C90145E0969587954A95E1F7F2
:101B200041E050E0BA0102C0660F771F8A95E2F7E4
:101B3000CB016091140570911505862B972BB90187
:101B40006B5F7F4FE5E076956795EA95E1F702C018
:101B5000440F551F6A95E2F7842B952B909315053A
:101B6000809314052A5F3F4F40911305642F70E066
:101B7000C9010E94E634481B463010F4240F311D81
:101B8000211572E0370710F030E020E02A5E3A4F6E
:101B900030931D0720931C0796CFF6E06F9FB0018E
:101BA00011246A58784F46E050E00E942936A2CFAF
:101BB000CF93DF93EC01FE018491811103C0DF918B
:101BC000CF9108950E94580D2196F5CFCF93382FCD
:101BD000E0911C07F0911D07E651F5402091130597
:101BE000622F70E0CF010E94E634281B822F33233E
:101BF00061F066E00E943135C82FC15010F4CF91DA
:101C0000089580E20E94580DF8CF9F01280F311DE2
:101C10002115324018F080E0F0E0E0E08E0F9F2FB9
:101C2000911D8A5E9A4F90931D0780931C07E7CF02
:101C30000E94D80D81E00E94E60D08958091540124
:101C4000882359F18091B80487FF27C00E94570C60
:101C50008093E50140E250E062E272E084EE91E0C0
:101C60000E943F36892BC1F080E2E4EEF1E0A2E26F
:101C7000B2E001900D928A95E1F7E091B404F09101
:101C8000B504309749F086E08093E4010480F58143
:101C9000E02D84EE91E0099508950E94570C809301
:101CA000DC0148E050E062E472E08CED91E00E94DB
:101CB0003F36892B89F388E0ECEDF1E0A2E4B2E055
:101CC00001900D928A95E1F7E091B404F091B5048A
:101CD000309711F30280F381E02D8CED91E0DBCFA2
:101CE000882321F00E944F0C0E941E0E0895882325
:101CF00039F090914A02892B80934A020E941E0E6D
:101D000008950F931F93CF93DF938B01EA01909176
:101D1000CC04943061F58093E9008FEF9091E80056
:101D2000815095FD06C095ED9A95F1F7000081115F
:101D3000F5CF8091E80085FF1AC00E94CE06811180
:101D400011C08091E80085FD06C08091E8008E7783
:101D50008093E800F2CFF80181918F018093F10028
:101D6000219779F78091E8008E778093E800DF91E2
:101D7000CF911F910F910895BC0143E050E084E0A2
:101D80000E94810E0895BC0146E050E084E00E946C
:101D9000810E0895BC0140E250E084E00E94810E73
:101DA0000895CF93DF93D82FC92F48E050E0682FD4
:101DB000792F81E00E94810E88E0ED2FFC2FA2ECAC
:101DC000B4E001900D928A95E1F7DF91CF910895EB
:101DD000609150018091950480FF20C080914F0157
:101DE00043E0849FC00111248B519D4F539A2BB126
:101DF000277F3BB138605FB7F894FC01649FE00D2A
:101E0000F11D1124BF0168177907D1F45FBF8FE579
:101E100094E00197F1F700C000000895809151010E
:101E20009091520123E0829FF0011124EB51FD4F6C
:101E30008917A0F61182108212828F5F3396F8CF35
:101E4000FC014191CF01E8E03BB9000000C047FF31
:101E50002BB9440F000000C000C000C02BB900C067
:101E6000EA9591F7D0CF0F931F93CF93DF93EC01B7
:101E700010E000E0909153019017110609F06CF406
:101E80000E94E80E8C8190E00196817099278C83E6
:101E9000DF91CF911F910F91089520915101A801D9
:101EA000420F511D9A01220F331F240F351F2B5152
:101EB0003D4F4C81609197048091960496959017C0
:101EC000110651F04CF0442349F0409198040E94CF
:101ED00069090F5F1F4FCECF4423B9F340E0F7CF1E
:101EE000AEE0B0E0E6E7FFE00C9406358D879E8714
:101EF000AD85BE8514961C91212F30E0D9010E943A
:101F000001379B01AC010E94CC3669837A838B83B5
:101F10009C83E0E2F0E0E11BF109A5E5B0E09B0164
:101F2000AC010E94CC3669877A878B879C879F019A
:101F3000DF010E946C356D837E838F8398879B01C0
:101F4000AC010E94D7369B01AC0169817A818B81FB
:101F50009C81260F371F481F591F69857A858B85FD
:101F60009C850E94DF36F22E822F90E079E2721774
:101F700040F183E0289F9001112435952795122F79
:101F8000109500E085E5E82EEF18809153010817C1
:101F900038F10E94E80EAD85BE8514969C9181E0D3
:101FA000992319F0903219F48FEF80934E018091AC
:101FB0004E01890FED85FE8584832E96E6E00C9414
:101FC000223525E530E0D901A81BB90B9D01220F70
:101FD000331F2A0F3B1F37FFD0CF2F5F3F4FCDCF8F
:101FE0008E2D01FD8F2D20915101E22FE00FFF2753
:101FF000FF1F9F01220F331F2E0F3F1F2B513D4FFD
:10200000412F609197040E9469090F5FBECFCF9264
:10201000DF92FF920F931F93CF93DF93EC018C819C
:10202000811109C081E08C831092E30292E09093C9
:102030004D0180934C01109151019091520183E028
:10204000189FF0011124EB51FD4F812F891778F172
:1020500000E093E0F92E60915301061770F10E94A1
:10206000E80E80914C012091E302280F2093E302B7
:1020700090914D01980F90934D01191654F4022E32
:10208000000C330B409153014150550B2417350779
:1020900034F0819580934C01813009F41C82DF91EA
:1020A000CF911F910F91FF90DF90CF9008951182F3
:1020B000108212828F5F3396C9CFC02ED12C70E070
:1020C000C6010E944B35810F482F50E02091E3025A
:1020D000022E000C330BC216D306BCF020914D012A
:1020E000022E000C330B2C153D057CF08F9D9001CA
:1020F00011242B513D4F4091980460919704809199
:1021000096040E9469090F5FA6CFFA01EE0FFF1F28
:10211000E40FF51FEB51FD4F118210821282F3CFB5
:10212000B0E0A0E0E6E9F0E10C940135EC018A8131
:10213000BB24BA9480FD02C0BB24B394A090530189
:102140008C81811109C081E0B8121EC08FEF8A0D09
:102150008093E20281E08C83F12CE12CEA14B8F048
:102160000E94E80E8091E20291E0B91257C08111FD
:1021700050C08091530181508093E2021C82CDB700
:10218000DEB7EBE00C941D351092E202E3CF009134
:1021900051010E0D1F2D111DC801880F991F080F29
:1021A000191F0B511D4FF80111821082128234E069
:1021B000C32ED12C912C8091E202890D87332CF112
:1021C00066E30E943D35892F082E000C990B8E1571
:1021D0009F0591F4809198048C9DA0018D9D500DD8
:1021E0001124559547955595479598016091970409
:1021F000809196040E9469099B0CF1E0CF1AD108E6
:10220000D1F68FEFE81AF80AA9CF87FFDDCF8A0D44
:10221000DBCF81508093E202BC82B1CF90E0019687
:102220006091530170E00E944B358093E2028C83F1
:10223000A6CFEF92FF921F93CF93DF93EC0110E0B4
:10224000EE24EA94F12C60915301161770F00E946D
:10225000E80E9A818C8190FF27C08F5F8C83DF917D
:10226000CF911F91FF90EF90089520915101422F3F
:10227000410F5527551FCA019A01220F331F280FFE
:10228000391F2B513D4F70E0C7010E944B35962FEF
:102290008C814091980460919704199F800D1124BE
:1022A0000E9469091F5FCFCF8150D8CF90919504CC
:1022B00090FF0EC0909151012091520133E0939F05
:1022C000F0011124EB51FD4F921718F00E94E80E17
:1022D00008958183608342839F5F3396F5CFA3E0A7
:1022E000B0E0E5E7F1E10C9408358C018091E4025F
:1022F00081110AC09E012F5F3F4F42E36FEF0E94A2
:1023000069098A818093E402F8016481613049F0AF
:102310006230D1F08091E40240E0662331F040E089
:1023200015C06091E40240E080E00E945611F8017F
:10233000848190E0019663E070E00E944B358483D5
:102340002396E4E00C9424354091E40280E060E0C0
:10235000ECCFA3E0B0E0EFEAF1E10C940A35909104
:10236000950490FF0AC09E012F5F3F4F0E946909AC
:102370004B8169818A810E9456112396E2E00C9478
:102380002635CF93DF93EC01E5E9F4E043816281E8
:102390008C810E94A9118C818F5F8C83DF91CF91FA
:1023A0000895CF93DF93EC01EC81F0E0EF59FB4F00
:1023B0004491E5E9F4E0628181810E94A9118C8158
:1023C0008F5F8C83DF91CF910895E5E9F4E0808100
:1023D0008E7F80830E944C09EFEDF2E08281816064
:1023E00082830E94E80E0895B0E0A0E0EAEFF1E1F8
:1023F0000C940235F82EE92ED62EC72E8A01809134
:102400008402AA24A394B12C8A3018F48AE0A82E5E
:10241000B12CC1E0D0E06D2D7C2D8F2D9E2DF801CB
:102420000995811104C02196AC16BD062CF4CDB7D8
:10243000DEB7EAE00C941E35CC9F9001CD9F300DA5
:10244000300D112490E080E045E34A95F1F700005B
:10245000019682179307C1F7DECFCF93C82F6FEF96
:10246000811164E285E290E00E9479366FEFC1113C
:1024700062E186E290E00E9479366FEFC11160E27E
:1024800087E290E00E947936CF910895CF93DF9351
:10249000C9EAD1E060E0CE010E9479362196C115EB
:1024A00084E0D807B9F7DF91CF9108951F93CF93B8
:1024B000DF93962F122F632F8430D8F49830C8F40E
:1024C0004630B8F4C42FD0E0CC0FDD1F2CE0929F33
:1024D000C00DD11D112490E6899FC00DD11D11247E
:1024E000CE0189960E947936612FCE018A960E948C
:1024F0007936DF91CF911F910895AF92BF92CF921D
:10250000DF92FF920F931F93CF93DF93B12CA12CF7
:1025100000E0650110E013C0FE01259134914F2DBC
:10252000612F802F0E9456122296F39486E0F812B3
:10253000F3CF86E0C80ED11C1F5F183039F0E601DA
:10254000CC0FDD1FCB59DA4FF12CE6CF0F5F80E3C4
:10255000A80EB11C0430E9F6DF91CF911F910F91C5
:10256000FF90DF90CF90BF90AF90089580E00E94E1
:102570002D1260E088E290E00E9479360E947D1280
:102580000E94461281E00E942D12089585E290E09B
:102590000E945536843289F486E290E00E945536D6
:1025A000823159F487E290E00E94553691E0803202
:1025B00009F090E0892F8170089580E0FCCF0F939F
:1025C0001F93CF93DF93843030F5683020F5463089
:1025D00010F5C42FD0E0CC0FDD1F2CE0629FC00DA2
:1025E000D11D112430E6839FC00DD11D1124CE01D1
:1025F00089960E945536082F10E0102F0027CE0133
:102600008A960E9455369801282BC901DF91CF91F7
:102610001F910F91089590E080E0F8CF462F672F2B
:10262000783038F4463028F4843018F40E94DF12F1
:10263000089580E090E00895B0E0A0E0E2E2F3E1E8
:102640000C9405357C010091A00280914B02082B6F
:10265000C3E0D0E010E0DC2EC8010C2E02C095953E
:1026600087950A94E2F780FD09C02197A0F7D12C45
:102670008D2DCDB7DEB7E7E00C942135B7018C2F57
:102680000E940E130E94370B019779F3F1CFCF937D
:10269000DF93D82FC92F0E941C136D2F7C2F0E940F
:1026A0000E130E94370BDF91CF910895FC018481B6
:1026B0008823A1F0808191810E944713282F929551
:1026C0009F70963091F060F4925F9F70923030F47A
:1026D00081E0203F81F030F4283E30F080E004C0FB
:1026E0009A5FF3CF243FD1F7089581E0283E20F090
:1026F000213FA1F7F9CF08950895A6E0B0E0E3E8FF
:10270000F3E10C94093549835A83392F89819A81E1
:10271000332399F0222389F00E941C13182F682F6D
:1027200089819A810E94BC0C69817A81812F0E94E3
:102730000E132696E3E00C9425350E94880C182F82
:10274000F3CFB0E0A0E0E7EAF3E10C9404356C01CC
:102750007B0164E670E088E70E943332EC01860179
:10276000EC0CFD1CD7FD0CC0F801849164E670E010
:102770000E94A332EC010F5F1F4F0E151F0591F74A
:102780000E94253381E0CD2B09F080E0CDB7DEB784
:10279000E8E00C9420358091A1049091A20491115D
:1027A00003C091E089270895882369F062E070E012
:1027B00083E695E00E94A113811103C08091A104DA
:1027C00008951092A1048091A104EBCFA5E0B0E0A0
:1027D000ECEEF3E10C940A358091A1048D83809195
:1027E000A2048823F1F00E941908DC01CB01805A71
:1027F0009541AF4FBF4F80939D0490939E04A0934B
:102800009F04B093A0048D81811108C062E070E044
:1028100081E695E00E94A113811108C08091A10476
:102820008D838D812596E2E00C94263581E080939E
:10283000A104F4CFB0E0A0E0E0E2F4E10C94FC34B9
:10284000FC016280448081E08483E1E6F4E07490DE
:10285000E0EEF4E0E491C0919804C695C158D0E050
:10286000CC0FDD1FCD2FDD27812C75E0972EAA24FC
:10287000AA94B12C55245A94E719EE2EF12C80918C
:102880005301881638F00E94E80ECDB7DEB7E0E1BC
:102890000C941835C82CD12C82E0861568F09C9CCD
:1028A000F0019D9CF00D1124E957FC4F8091960496
:1028B0008083809197048183411023C09C9CF00108
:1028C0009D9CF00D1124E957FC4F13821282209138
:1028D0005101C601820F911D9C01220F331F280F49
:1028E000391F2B513D4F9C9CF0019D9CF00D1124F4
:1028F000E957FC4F4281618180810E94690983947C
:10290000BECF9C9C80019D9C100D112409571C4F2B
:10291000F80183818823F1F081508383859DC00174
:102920001124648170E00E94E634FB01FF27EF5917
:10293000FB4F8491E82FE719E59DC0011124B701F1
:102940000E94E63480919804689FB0011124F80138
:102950007283BDCF0E941936B5010E944B358C178A
:102960009D070CF0B4CFF2E0F61598F40E941936EA
:10297000B5010E944B35F80180830E9419362091E1
:1029800097042695622F70E00E944B35280FF801BE
:1029900021839C9CF0019D9CF00D1124E957FC4F74
:1029A000128280919804893C58F088EC9C9CF0013C
:1029B0009D9CF00D1124E957FC4F8483838387CFBE
:1029C0008431A0F784E1F2CFB0E0A0E0EAEEF4E1D8
:1029D0000C94003549015A018B01D82FC92F0E9450
:1029E000530964017501A401B50188E090E00E94DB
:1029F0008B369401A501B8018D2F9C2F00E20E9417
:102A00009635622F84E290E00E947936CDB7DEB72A
:102A1000ECE00C941C35A3E0B0E0E1E1F5E10C94AE
:102A20000335082FE62EF42EC22E9091950490FFC8
:102A300041C020919604281308C080919704861302
:102A400004C080919804841729F08091E10282608B
:102A50008093E102E92FE695E695AE2FB0E0A1560E
:102A6000BE4F8C918093DF029C7F943039F59E019C
:102A70002F5F3F4F4F2D6E2D802F0E9469094B8194
:102A800069818A810E94561100939604E09297040E
:102A9000F0929804CC2071F02091950460919904F3
:102AA00070919A04302FA70180919B0490919C040F
:102AB0000E94E4142396E9E00C941F35823019F447
:102AC000F0909804E1CF8630A1F1893091F18931FD
:102AD000D9F6E9516E2F6170B62EE695F0E0E45A12
:102AE000FB4F1491D12C60915301D61618F00E941F
:102AF000E80ECACFD19EC001112470E00E94E634D6
:102B0000802FB11014C0860F20915101622F6D0DDE
:102B10007727771F9B01220F331F260F371F2B515B
:102B20003D4F4F2D6E2D0E946909D394DCCF861B3B
:102B3000EBCF022FA9CFE5E9F4E0438121E1421B6D
:102B400008F440E021E0628181810E940B15089524
:102B5000E5E9F4E0438121E1420F08F44FEF21E081
:102B6000628181810E940B150895E5E9F4E062819C
:102B700021E1621B08F460E021E0438181810E9431
:102B80000B150895E5E9F4E0628121E1620F08F494
:102B90006FEF21E0438181810E940B150895E5E9E3
:102BA000F4E0818121E04381628188500E940B150D
:102BB0000895E5E9F4E0818121E043816281885F45
:102BC0000E940B15089580919904882319F0815073
:102BD0008093990420919504309196044091970434
:102BE000509198046091990470919A0480919B048B
:102BF00090919C040E94E41408958091990483307C
:102C000018F48F5F80939904209195043091960475
:102C100040919704509198046091990470919A049E
:102C200080919B0490919C040E94E4140895E5E92E
:102C3000F4E085E0808311828FEF828382E38383D7
:102C40001482AFEDB2E012968C91129783601296C7
:102C50008C93758125E030E04FEF52E360E0868190
:102C600097810E94E41408959091B90492FB222761
:102C700020F9281779F080FB92F99093B9046091BC
:102C8000B8047091B90484E090E00E94973682E025
:102C90000E94220D089590E080E00E946336863EF7
:102CA0009E4F19F40E94C612089580E008958F92F5
:102CB0009F92AF92BF92EF92FF920F931F93CF9389
:102CC000DF937B01B901D801F70180809180A28058
:102CD000B3809FB7F8940091BB041091BC0420917D
:102CE000BD043091BE049FBF081919092A093B0988
:102CF000043611052105310518F4C1E0442321F102
:102D0000C82F082E000CDD0B98E08902F001112479
:102D1000EC5FFE4F818192818C599D4F408150E044
:102D2000A417B50708F4AD010E944C36CE010E94ED
:102D30007034C82F882341F00E941908D7016D9381
:102D40007D938D939C9313978C2FDF91CF911F913F
:102D50000F91FF90EF90BF90AF909F908F9008954C
:102D6000ABE0B0E0E6EBF6E10C94083588E0E5E98D
:102D7000F4E0DE01119601900D928A95E1F78091C1
:102D8000DF029091E002A091E10289879A87AB87E8
:102D900041E08B85811101C040E00BE010E09E0115
:102DA0002F5F3F4F60E872E084E00E945716811168
:102DB0001092E1022B96E4E00C9424350F931F93BC
:102DC000CF93DF93D82FC92F44E050E069E672E03B
:102DD0000E943F3641E0892B09F440E004E010E016
:102DE0002D2F3C2F60E672E082E00E945716DF91A3
:102DF000CF911F910F910895A8E0B0E0E2E0F7E1D4
:102E00000C94093540917C0250917D0260917E02C4
:102E100070917F022FB7F8948091BB049091BC040D
:102E2000A091BD04B091BE042FBF841B950BA60BCF
:102E3000B70B11E084369105A105B10578F10E9428
:102E4000130ADC01CB010296A11DB11D89839A836F
:102E5000AB83BC8380911D0190911E018C599D4FC5
:102E600020911C01422F50E0253010F044E050E04A
:102E7000BE016F5F7F4F0E944C3683E090E00E945E
:102E80007034182F882351F00E94190860937C0237
:102E900070937D0280937E0290937F02812F28960B
:102EA000E3E00C942535EF92FF921F93CF93DF93CD
:102EB00000D000D00F92CDB7DEB77B0190E080E06C
:102EC0000E947034182F882309F487C0809107016D
:102ED000482F50E0882311F041E050E06091080154
:102EE000709109016C597D4FCE0105960E944C36B8
:102EF00040915C0250915D0260915E0270915F02B0
:102F00002FB7F8948091BB049091BC04A091BD04AC
:102F1000B091BE042FBF841B950BA60BB70B843654
:102F20009105A105B10540F485E692E00E9498065E
:102F30009D81891709F451C081E090E00E947034AE
:102F400081111AC010E08091580290915902A0910D
:102F50005A02B0915B02F70180839183A283B3830D
:102F6000812F0F900F900F900F900F90DF91CF91C6
:102F70001F91FF90EF90089580910F01482F50E02E
:102F8000853010F044E050E0609110017091110123
:102F90006C597D4FCE0101960E944C3685E692E039
:102FA0000E9498069D818913CDCF0E9419086093D5
:102FB0005C0270935D0280935E0290935F02898150
:102FC0009A81AB81BC818093580290935902A0935F
:102FD0005A02B0935B0211E0B6CF809165029091E6
:102FE0006602A0916702B091680289839A83AB83DD
:102FF000BC831111E4CFA7CFA8E0B0E0E2E0F8E194
:103000000C940A3566EE7EEF90E080E00E949736E1
:1030100060E082E090E00E94793681E080934B028C
:1030200061E083E090E00E94793660E074E184E042
:1030300090E00E94973660E086E090E00E9479364A
:103040006FEF87E090E00E94793640E050E0BA01EF
:1030500088E090E00E948B3660E084E290E00E947D
:10306000793660E087E190E00E94793660E08CE09C
:1030700090E00E94793660E08DE090E00E94793621
:1030800019821A821B821C821D821E821F82188650
:1030900048E050E068E170E0CE0101960E94693698
:1030A00040E050E0BA0180E290E00E948B3680E080
:1030B0000E942D120E94B61240E050E0BA018FE04B
:1030C00090E00E948B3640E050E0BA0183E190E04E
:1030D0000E948B362896E2E00C9426351F920F92C0
:1030E0000FB60F9211242F933F934F935F936F93DB
:1030F0007F938F939F93AF93BF93EF93FF938091B1
:10310000E10082FF09C08091E20082FF05C080914A
:10311000E1008B7F8093E1008091DA0080FF24C082
:103120008091D80080FF20C08091DA008E7F80934C
:10313000DA008091D90080FF9BC080E189BD82E1E7
:1031400089BD09B400FEFDCF81E08093CC0480915D
:10315000BF04811109C00E94AF060E9450078091F0
:10316000E20084608093E2008091E10080FF17C05C
:103170008091E20080FF13C08091E2008E7F8093F7
:10318000E2008091E20080618093E2008091D800AB
:1031900080628093D80019BC85E08093CC04809134
:1031A000E10084FF29C08091E20084FF25C080E116
:1031B00089BD82E189BD09B400FEFDCF8091D800B0
:1031C0008F7D8093D8008091E1008F7E8093E10015
:1031D0008091E2008F7E8093E2008091E200816026
:1031E0008093E2008091CD04882309F447C084E0F5
:1031F0008093CC048091CC048091E10083FF27C0B0
:103200008091E20083FF23C08091E100877F80935B
:10321000E10082E08093CC041092CD048091E10023
:103220008E7F8093E1008091E2008E7F8093E200A8
:103230008091E20080618093E20042E060E080E003
:103240000E941E078091F00088608093F000FF913B
:10325000EF91BF91AF919F918F917F916F915F910E
:103260004F913F912F910F900FBE0F901F90189587
:1032700019BC1092CC041092BF0476CF8091E30069
:1032800087FD02C081E0B4CF83E0B2CF78941F9273
:103290001FB61F9211248F939F93AF93BF9380917A
:1032A000BB049091BC04A091BD04B091BE040196F2
:1032B000A11DB11D8093BB049093BC04A093BD04D9
:1032C000B093BE04BF91AF919F918F911F901FBE8D
:1032D0001F9018959C014FB7F8948091BB04909172
:1032E000BC04A091BD04B091BE044FBF821B930BE0
:1032F00008952FB7F8948091BB049091BC04A091DD
:10330000BD04B091BE042FBF08950E947919209189
:10331000AC043091AD04232B21F08093A80490934A
:10332000A9042091AE043091AF04232B21F08093A7
:10333000A6049093A704E091B404F091B5043097EB
:1033400049F082E08093AA040680F781E02D8AEAA2
:1033500094E00995089510924A02809154018823BF
:1033600039F18091B80487FF23C0E6EEF1E08EE1E9
:10337000DF011D928A95E9F790E080E00E94BD0888
:1033800090E080E00E949708109221020E941E0E99
:1033900086E0EAEAF4E0DF011D928A95E9F71092EF
:1033A000A3041092A4041092A5040E948519089504
:1033B000EEEDF1E086E0DCCFAAE2B0E0E2EEF9E18A
:1033C0000C9409358EEC94E0FC0101962091F100FB
:1033D000208324E0863D9207B9F78091CF0489309D
:1033E00009F456C0C8F4823009F4B3C0833009F43C
:1033F00082C0813071F18091E80083FF85C28091A5
:10340000CE049091CF049A3008F07EC2E92FF0E00C
:10341000EE5EF84C0C945F358A3009F489C08B302D
:1034200051F78091CE04813231F78091D20490918E
:10343000D304892B01F78091E800877F8093E8000F
:103440000E94FF068091D004809354010E94AB1922
:10345000D2CF8091CE04813A71F68091E800877FC7
:103460008093E8008091D2049091D304892B61F479
:1034700068E082EC94E070E00E94AB078091E80085
:103480008B778093E800B7CF60E090E080E0F3CFE7
:103490008091CE04813209F0AECF8091D204909118
:1034A000D3048D7F892B09F0A6CF8091E800877F18
:1034B0008093E8008091E80082FF18C09091F300AB
:1034C0008091F200029731F48091F100813011F087
:1034D000863021F48091F1008093C1048091E8004E
:1034E0008B778093E8000E94FF0685CF8091CC0403
:1034F0008111E0CF80CF8091CE04813A09F07BCF5B
:103500008091D2049091D304892B09F074CF8091DB
:10351000E800877F8093E8008091E80080FFFCCF7F
:10352000809154018093F1008091E8008E77D9CF8B
:103530008091CE04813209F05ECF8091E800877FD0
:103540008093E8000E94FF068091D1048093C0041C
:1035500052CF8091CE04813A09F04DCF8091E8009E
:10356000877F8093E8008091E80080FFFCCF809106
:10357000C004D8CF803899F0823809F0C5C1809155
:10358000D2048F70873008F0BFC18093E90080912A
:10359000EB0085FB882780F91092E90006C0809136
:1035A000CA049091CB04911182609091E800977FBA
:1035B0009093E8008093F1001092F1008091E80070
:1035C0008E779EC1882309F48CC1823009F09CC19A
:1035D0008091D00481118FC18091D2048F702FEF20
:1035E000280F263008F090C18093E9002091EB006D
:1035F00020FF81C1933031F48091EB008062809391
:10360000EB0079C19091EB0090619093EB0021E089
:1036100030E001C0220F8A95EAF72093EA00109269
:10362000EA008091EB008860EACF81116DC11091B2
:10363000D0041F778091E3008078812B8093E30092
:103640008091E800877F8093E8000E94FF068091C8
:10365000E80080FFFCCF8091E30080688093E30066
:1036600082E0111183E08093CC044EC180588230F7
:1036700008F04AC14091D0045091D1044C3D83E000
:103680005807A1F583E08A838AE289834FB7F894CB
:10369000DE01139620E03EE051E2E32FF0E050938C
:1036A0005700E49120FF03C0E295EF703F5FEF7099
:1036B0008E2F90E0EA30C0F0C7968D939D932F5FD8
:1036C000243159F74FBF8091E800877F8093E8004D
:1036D0006AE270E0CE0101960E94AB078091E8009B
:1036E0008B778093E80010C1C096E7CF8091D20419
:1036F0009091D304252F33272330310509F44AC094
:1037000078F52130310509F479C08BE590E0E5EEDC
:10371000F6E02230310509F0F7C02091E800277F5C
:103720002093E8002091D4043091D50482179307A8
:1037300008F49C0140E02115310509F064C04111F5
:1037400062C08091E80082FDC9CF8091CC048823BB
:1037500029F2853019F28091E80083FFF2CFBECFC5
:103760002132310509F43BC02232310509F0CCC0C9
:103770008330910508F0C8C0FC01EE0FFF1FE35332
:10378000FE4F0190F081E02D86539E4FDC018C911D
:1037900090E011C0CA019927413089F0823091052B
:1037A000B1F0892B09F0B0C0E2E7F7E0E4918E2F89
:1037B00090E0E2E7F7E0009709F4A6C0AECFE0E6BC
:1037C000F7E0E4918E2F90E0E0E6F7E0F4CFE2E559
:1037D000F7E0E4918E2F90E0E2E5F7E0ECCF833064
:1037E000910508F091C0880F991FFC01ED52FE4F22
:1037F0000190F081E02D89E090E08FCF82E190E0B0
:10380000E0E4F7E08ACF8091CC04882309F466CF06
:10381000853009F463CF8091E80083FD5FCF80910C
:10382000E80082FD8ECF8091E80080FF84CF9091E8
:10383000F3008091F2002115310519F088309105CF
:1038400050F041E0089709F040E08091E8008E7761
:103850008093E80070CF44914093F100319621505D
:1038600031090196E8CF803809F04EC08091E80018
:10387000877F8093E8008091CD048093F1009ECEF5
:10388000811142C01091D0041230F0F58091E8000F
:10389000877F8093E8001093CD040E94FF061123D8
:1038A00011F084E005C08091E30087FDFACF81E04C
:1038B0008093CC0442E061EC81E00E941E0742E26A
:1038C00061EC84E00E941E0742E261EC82E00E940B
:1038D0001E0742E260EC83E00E941E078091CC0448
:1038E00013C08091D004813079F481E0933009F0E5
:1038F00080E08093CB041092E9008091E800877FFC
:103900008093E8000E94FF068091E80083FF0AC0D0
:103910008091E800877F8093E8008091EB008062CF
:103920008093EB00AA96E3E00C9425351F920F924A
:103930000FB60F9211242F933F934F935F936F9382
:103940007F938F939F93AF93BF93CF93DF93EF9327
:10395000FF93D091E900DF708091EC00C82FC17017
:1039600080FDC0E81092E9008091F000877F80938D
:10397000F00078940E94DC191092E9008091F00028
:1039800088608093F000CD2BCF70C093E900FF9149
:10399000EF91DF91CF91BF91AF919F918F917F91E7
:1039A0006F915F914F913F912F910F900FBE0F90AC
:1039B0001F9018950E94AB192FEF84E39CE02150D3
:1039C00080409040E1F700C0000088E19AE00FB627
:1039D000F894A895809360000FBE90936000FFCF8D
:1039E0004091AC049091AE042091AF04662309F499
:1039F00069C0942B922B2091AD04922B31F098E06A
:103A00009093A30491E09093A4048D3C41F40E9410
:103A1000160981958093AD040E94851908958E3C06
:103A200019F40E941609F6CF8F3C31F40E94160952
:103A300081958093AC04F0CF803D19F40E94160963
:103A4000F8CF893D29F40E94F4088093AE04E4CFB6
:103A50008A3D21F40E94F4088195F7CF8B3D31F423
:103A60000E94F40881958093AF04D6CF8C3D19F461
:103A70000E94F408F8CF9FE2980F983070F4815DAF
:103A8000990B21E030E001C0220F8A95EAF780917E
:103A9000AB04822B8093AB04BFCF8D3D31F480917A
:103AA000A50481608093A504B7CF8E3D21F4809159
:103AB000A5048260F7CF8F3D09F0AECF8091A504B9
:103AC0008460F0CF8D3C59F48091AD0487FF0DC028
:103AD0001092AD0441110BC01092A30408C08E3C9B
:103AE00081F48091AD0418169CF3442381F08091F9
:103AF000AE049091AF04892B09F08ECF1092A404EC
:103B00008BCF8F3C49F447FFF0CF1092AC048091EB
:103B1000AD048111ECCFE0CF803D19F41416ACF365
:103B2000E4CF893D29F4191604F71092AE04DDCFD5
:103B30008A3D19F497FFD9CFF8CF8B3D29F427FFA1
:103B4000D4CF1092AF04D1CF8C3D19F41216CCF320
:103B5000CCCF9FE2980F983090F4815D990B21E0D3
:103B600030E0B90102C0660F771F8A95E2F7CB01FA
:103B700080959091AB0489238093AB04B6CF8D3DA3
:103B800031F48091A5048E7F8093A504AECF8E3D45
:103B900021F48091A5048D7FF7CF8F3D09F0A5CF4B
:103BA0008091A5048B7FF0CF882381F19CEF980F43
:103BB000913A28F40E9436080E941E0E089590E261
:103BC000980F983050F4877091E001C0990F8A9552
:103BD000EAF7892F0E944F0CEFCF9BE5980F9330A7
:103BE00028F490E080E00E94BD08089598E5980FC1
:103BF0009B3128F490E080E00E949708089593E3B9
:103C0000980F933118F460E00E94F01C0895CF9350
:103C1000C82F8823B9F18CEF8C0F813AA8F58091D9
:103C20005401882301F18091B80487FF1CC0EC2F58
:103C3000E695E695E695F0E0EC51FE4F828190E046
:103C40004C2F477021E030E002C0220F331F4A950D
:103C5000E2F782239323892B81F08C2F0E94360870
:103C60000E941E0E0AC0EEEDF1E084EE91E021917B
:103C7000C21799F38E179F07D1F78C2F0E94630804
:103C80000E941E0ECF91089580E28C0F883068F458
:103C9000C77021E030E001C0220FCA95EAF7809199
:103CA0004A02822B80934A02EBCF8BE58C0F833044
:103CB00038F42C2F2452330BC9010E94BD08E2CFE7
:103CC000E8E5EC0FEB3150F4F0E0EE0FFF1FEB5A9C
:103CD000FE4F808191810E949708D4CF83E38C0F9F
:103CE000833180F661E08C2F0E94F01CCBCF0F93C4
:103CF0001F93CF93C82F10E000E0893311F400E543
:103D000010E08C2F0E94071E0115110539F48C2F2D
:103D10000E94D41DCF911F910F9108958FE99FE0CC
:103D20000197F1F700C0000001501109EDCFFF929B
:103D30000F931F93CF93DF93C62FD42F122FFC0125
:103D400085818823A9F0609312050E9479199093C8
:103D5000110580931005C77081E001C0880FCA95D6
:103D6000EAF70E94770ECDB7DEB7E5E00C94233575
:103D700080911205681330C0809110059091110553
:103D80000E946A19883C910538F500E20D0FCD17A5
:103D9000A9F0C770FF24F3948F2D01C0880FCA9536
:103DA000EAF70E94700E083048F48D2F877001C02A
:103DB000FF0C8A95EAF78F2D0E94770E812F0E94C3
:103DC000771E083080F6D77081E001C0880FDA9541
:103DD000EAF70E94700EC7CFC77081E001C0880F5C
:103DE000CA95EAF7F6CF8091B004882319F00E94B3
:103DF000791908950E94130ACB01089560919504E2
:103E00006695669570E04BE050E081E491E00E9499
:103E10003236892B19F481E08093E0020E94F31E70
:103E20009093DA028093D9028091E10284608093BA
:103E3000E10208959091950490FF3AC0937081112A
:103E400038C09460909395048091E10281608093E2
:103E5000E102662391F020919504309196044091FF
:103E60009704509198046091990470919A048091FC
:103E70009B0490919C040E94E414609195046695C3
:103E8000669570E04BE050E081E491E00E943236AC
:103E9000892BB9F00E944C0981E08093DC0220E07C
:103EA0004091980460919704809196040E940B15AC
:103EB00008958B3210F0986AC5CF880F880F982B21
:103EC000C1CF0E94FE1EE8CF9091950496959695DD
:103ED0008FEF890F913009F48AE261E00E941A1F86
:103EE000089580919504869586958F5F8B3208F0B2
:103EF00081E061E00E941A1F08959091950490FF5F
:103F000009C096959695981728F0961718F40E9470
:103F1000711F089561E00E941A1F0895A8E0B0E0A3
:103F2000E4E9FFE10C94FC348C01DC0114968C91E3
:103F30001497882309F4B8C021E04C9111965C9144
:103F4000119712966C91129713967C911397159670
:103F50009C910E947D137C01F8019581992309F4BD
:103F6000B0C5970137572038310508F035C1FFE05B
:103F7000FE1508F489C08FEF93E00E945536811139
:103F800083C059EAA52EBB24B394E11049C01A821C
:103F90001982FE01339686E0DF011D928A95E9F7CA
:103FA0004AE0442E6501BFEFCB1ADB0AC5010E942F
:103FB000553689831A82882309F466C0813009F056
:103FC00077C07501E2E0EE0EF11CC6010E94553685
:103FD0008A83882309F458C09FEF980F933070F5B7
:103FE000F3E0AF0EB11CC7010E9455368B838823C6
:103FF00009F44AC01C82DE0111967D01F70120817F
:10400000222381F2213009F093C091818281913085
:1040100009F050C0F2E0EF0EF11C0E94771E51C073
:10402000A11424E0B20681F1C5010E945536811128
:1040300001C0EA943FEFA31AB30AA7CF8430D9F4A2
:1040400032E0C32ED12CC7012FEFE21AF20A0E94F0
:104050005536E1E0F0E0EC0FFD1FEC0DFD1D808317
:10406000882391F08C3749F4E2E0F0E0EC0FFD1F7B
:10407000EC0DFD1D10825701BECF3FEFC31AD30ACE
:1040800087E0C816D104F9F680911F02877061F0AD
:10409000D80115968C91882339F08091B90482FF5C
:1040A00003C082E00E94220D2896E0E10C941835AE
:1040B0005601A1CF923049F422E0E20EF11C0E9499
:1040C000071EEFEFEE1AFE0A99CF933031F432E07B
:1040D000E30EF11C0E94D41DF4CF943021F08FEF39
:1040E000E81AF80AEECF92E0E90EF11C30E020E089
:1040F000B7016F5F7F4FD70111964C918053990B99
:104100008A30910550F021503109D8F2EFE9FFE0F3
:104110003197F1F700C00000F6CF429EF001439EB8
:10412000F00D11249C012E0F3F1F842F7B01E0CF47
:10413000E22FF0E0E850FE4F5490822F869586954E
:10414000869590E0FC01E851FE4F64902770712C39
:10415000022E02C0759467940A94E2F731E063225C
:104160007724FC01E852FE4F8490912C022E02C06D
:10417000959487940A94E2F7A1E08A229924FC019D
:10418000E853FE4FC490D12C02C0D594C7942A9511
:10419000E2F7B1E0CB22DD246114710419F081EE65
:1041A0000E94071E8114910419F086EE0E94071EDA
:1041B000852D0E94771E8114910419F086EE0E94CD
:1041C000D41D6114710419F081EE0E94D41DCD2814
:1041D00009F477CF8CE221CF81818093AB0280817B
:1041E0008093AA0280E280933901F092A902E092C2
:1041F000A802970130522115304228F48681807F31
:10420000B1F0F7010BC09701305421153041C8F4CB
:10421000D80116968C91807FF70109F0FF27ED33C6
:10422000F10528F4E858FD4FE491E0933901F701D6
:10423000E851FC47E730F10578F5E45EF84C0C9462
:104240005F3597013A9521153F41D8F29701205AE1
:1042500032452032310558F3F701E1CF26E241EE35
:1042600061EEC8010E94971E0FCF27E245EE65EE72
:10427000F8CF26E241EE60EEF4CF27E245EE64EEA1
:10428000F0CF26E241EE62EEECCF27E245EE66EE9D
:10429000E8CF28E241E0EBCF1092120597013057AA
:1042A0002332310508F030C484E090E00E94633688
:1042B0009093B9048093B804F701E150F047E232DB
:1042C000F10520F4ED5DF84C0C945F358091B80455
:1042D00081608093B8046091B8047091B90484E05F
:1042E00090E00E9497360E94AB19CECE8091B9041F
:1042F00088608093B904EFCF8091B8048260E9CFE1
:104300008091B8048460E5CF8091B8048860E1CFE3
:104310008091B9048160EDCF8091B9048260E9CFCA
:104320008091B8048061D5CF8091B8048062D1CFEC
:104330008091B8048064CDCF0E94AB198091B804FD
:104340008068C7CF8091B8048C60C3CF8091B904D6
:104350008360CFCF8091B8048E7FBBCF8091B904AA
:10436000877FC7CF8091B8048D7FB3CF8091B80489
:104370008B7FAFCF8091B804877FABCF8091B9049A
:104380008E7FB7CF8091B9048D7FB3CF8091B80471
:104390008F7E9FCF8091B8048F7D9BCF8091B80492
:1043A0008F7B97CF0E94AB198091B8048F7791CF04
:1043B0008091B804837F8DCF8091B9048C7F99CF91
:1043C0008091B80482FB992790F921E0922790FB15
:1043D00082F990FB83F97DCF8091B904982F909555
:1043E00091708E7F892B90FB81F983CF9091B804D7
:1043F000892F8F7B96FF80646CCF0E94AB199091C0
:10440000B804892F97FB87F9805863CF61E08EE06D
:1044100090E00E9479365FCF60E0F9CF9091B804C8
:10442000892F8F7E94FF806154CF9091B804892F9B
:104430008E7F90FF81604DCF9091B904892F877F47
:1044400093FF886056CF85E370C385E34CC3911119
:104450004DC380914A028272F701E052F847E5317C
:10446000F10508F083C0EB5BF84C0C945F3580914C
:10447000950480FF1EC0282F2E7F20939504309135
:10448000960440919704509198046091990470911A
:104490009A0480919B0490919C040E94E4140E94D1
:1044A0004C098091E10281608093E1020E94E80E54
:1044B000EBCD81608093950461E0869586950E949E
:1044C0001A1FE2CD44E65FE161E77FE10E94440903
:1044D000DBCD41E75FE164E67FE1F8CF4FEC55E1EA
:1044E00069ED75E1F3CF49ED55E16FEC75E1EECF84
:1044F00045EB55E162EC75E1E9CF42EC55E165EB46
:1045000075E1E4CF4BE955E168EA75E1DFCF48EAB0
:1045100055E16BE975E1DACF43EE55E16DEF75E1F9
:10452000D5CF4DEF55E163EE75E1D0CF61E081E08D
:10453000C6CF65E082E00E947D1FA6CD68E086E0E0
:10454000FACF6EE089E0F7CF64E18FE0F4CF67E166
:1045500085E1F1CF61E088E1B2CF62E289E1EBCFA2
:1045600061E083E2ACCF6AE285E2E5CFF7E7EF16E0
:10457000FCE7FF0609F0E6C281E00E94150DBEC20D
:104580002AE5E2162CE7F20609F490C008F064C0B0
:1045900081E0E8168CE7F80609F486C093E0E91696
:1045A0009CE7F90609F47AC0E114ACE7FA0609F4CD
:1045B00068C0F8018581C080D180882309F47AC061
:1045C000C6010E941C13F82E682FC6010E94BC0C65
:1045D000B6018F2D0E940E130E94370B7C01882E8E
:1045E000D80115967C9015971696CC90C2942FE022
:1045F000C22280911F02877009F1972C7720F9F071
:104600008F2D807F803469F080E28E0D8830B0F08D
:104610008F2D807E803229F4B1E0BE1578F4CC2055
:1046200069F08091B90482FF09C082E00E94220DE6
:1046300080911F028770992493948111912C8F2D62
:1046400082958F70A82EB12C8C3008F09CC0F5019B
:10465000E65AF84C0C945F35BBE5EB16BCE7FB065D
:1046600039F1ECE5EE16ECE7FE0609F0A2CF8091F9
:10467000B90482FB882780F991E089270E943416CB
:1046800098CF0E94AB19FFEF24E33CE0F1502040AB
:104690003040E1F700C000000E9408086FEF7FEF94
:1046A00090E080E00E9497360E94DA1C81E0E6CF1D
:1046B00080E0E4CFC6010E94880CF82E89CFEF2D50
:1046C000EF70DE2E8F2D807F19F0D29490EFD922DB
:1046D0008E2D7720B9F0DD2069F090E29E0D9830A4
:1046E00010F0E11009C080914A02D82AD0924A0203
:1046F0000E941E0E8E2D45C080912102D82AD09294
:104700002102F6CF0E94D41DDD20E9F180E28E0D5A
:10471000883010F0811004C08D2D0E944F0C06C00F
:10472000D09480912102D822D09221020E941E0EA4
:104730002AC0FF2DFF70DF2E8F2D807F803219F071
:10474000D29480EFD8228E2D882059F021E0821655
:1047500009F47BC0772009F487C0CC2009F449C054
:10476000C9CF8091B90482FD40C07720C1F1DD201E
:1047700039F080914A02D82AD0924A020E941E0E35
:1047800080E00E94071EE8E0AE1AB108F4E0AF1620
:10479000B10410F40E94E3089920B1F080911F0247
:1047A00080FD12C0D80115961C9286958695869537
:1047B0000E94390DC8010E948E1F80911F028695AC
:1047C000869586950E94150D20E0F8014081518163
:1047D00062817381848195810E947D1365CC80E024
:1047E0000E94D41DDD2079F297CF7720A1F0C1106F
:1047F00004C08D2D0E94770EC6CF31E0C312C3CF07
:10480000809120029D2D9823D91609F4BCCFD82A77
:10481000D0922002B8CFC110B6CF8D2D0E94700E5D
:10482000909120028D2D892329F08D2D809589234B
:1048300080932002809105029D2D982309F4A3CF37
:10484000D094D822D09205029ECF772029F085E01F
:104850008C1508F498CFCDCF94E09C1508F493CF35
:104860008D2D0E94700E8FCFCC20D1F3893349F467
:10487000AFEFB7EEE3E0A150B040E040E1F700C099
:1048800000008E2D0E94D41D7ECF8F2D869586959B
:10489000837061F0813009F076CFC7019370711099
:1048A00002C080E090E00E9497086DCFC70193702E
:1048B000711002C080E090E00E94BD0864CF672DB7
:1048C0008E2D0E94F01C5FCF8F2D837099F5711093
:1048D0005ACF4E2D429546954770440F440F8E2D6A
:1048E0008F70042E01C0880F0A94EAF72E2D2071D4
:1048F000E4FE07C02FE030E001C0220F4A95EAF73E
:1049000020953F2D369536953370323071F0333027
:1049100051F040914B02313029F0822B84230E94C8
:10492000450D31CF842B822BFACF282B80914B025F
:104930008227F5CF8695772011F08F2D81708823FF
:1049400009F421CF4E2D429546954770440F440FF0
:104950008E2D8F70042E01C0880F0A94EAF72E2D39
:104960002071E4FE07C02FE030E001C0220F4A951D
:10497000EAF720953F2D369536953370323071F039
:10498000333051F04091A002313029F0822B842342
:104990000E94F20CF8CE842B822BFACF282B809128
:1049A000A0028227F5CFFF2DFF70FF2E772029F080
:1049B0008F2F0E94390D8E2D1DCF8E2D0E94700ECF
:1049C0008F2D0E94150DDFCE8E2D22EF8216B1F1B4
:1049D000281570F030EF8316D1F091EF891691F021
:1049E000772009F45EC0C11085CE8F2D8F712AC04B
:1049F000A3EF8A1651F1B4EF8B12F2CF8091B90474
:104A000082FD2FC08F2D8F717720D9F21BC07720A8
:104A100081F0E4E0EC1508F4B6CE2F2D2F7181E083
:104A200090E001C0880F2A95EAF79091A0028927AB
:104A3000AFCFF5E0FC1508F4A6CEEFCF8F2D8F7128
:104A40007110BFCF0E94390D9ECE80E0772009F40F
:104A50009FCF9F2D9F7181E001C0880F9A95EAF743
:104A600097CF772099F02F2D2F71F22E822F0E9451
:104A7000390D8091B90482FF07C038E0F39EC00170
:104A80001124836080931F028F2DDCCF81E00E9470
:104A9000220D81E08C1508F076CE82E00E94220D76
:104AA00072CECC2059F0893309F0EBCE9FEFA7EE00
:104AB000B3E09150A040B040E1F7E1CE8F2D8F716F
:104AC00080CFF701E851FC47E730F10508F4B5CB9A
:104AD000E6E1EE16ECE7FE0609F0BBCC809104029D
:104AE0008111B3CC89E20E94360821C0F7E7EF16A6
:104AF000FCE7FF06F9F481E00E94390D43E062E033
:104B000081E00E94F50CC0CA26E1E2162CE7F2060D
:104B100009F09DCC80914A028A7A91E009F490E0F4
:104B20009093040281118FCC89E20E9463080E9455
:104B30001E0EAACA38E7E3163CE7F30609F020CDBB
:104B400082E0DACF88E7E8168CE7F80609F031CD85
:104B500082E013CDCF93DF9380911E02807F09F016
:104B60004DC080911D02882309F448C0E0910F05D3
:104B70005091D604C0911902D091180260911A0286
:104B800070911B0247E05E17C9F18E2F90E0E49F01
:104B9000F0011124E952FB4F2481222391F1489F17
:104BA000F001499FF00D1124DF01A952BB4F11966E
:104BB0002C9111972C1325C02C912D1322C01596E2
:104BC0002C91159721111DC012962D913C91261BF9
:104BD000370B283C3105A8F480911E028F7080614C
:104BE00080931E02E352FB4F80818F70806180832F
:104BF00088E192E00E948E1F0E947E0CDF91CF918F
:104C00000895FC013196E770BECFADE0B0E0EBE077
:104C1000F6E20C9400358C0186E0F801DE0118966E
:104C200001900D928A95E1F7F8018481E58098E181
:104C3000A92E92E0B92E90911C02911128C08823D0
:104C400019F1EE20F1F0C8010E945613F82E8823C6
:104C5000C1F087E0F801D50101900D928A95E1F746
:104C600080911C02813031F48091180290911902D8
:104C70000E9447130E94AA258F2D2D96ECE00C94DC
:104C80001C35C8010E948E1FFF24F394F5CFD080FD
:104C9000C18082809380F0901D0220911A02309191
:104CA0001B02A401421B530BFF2009F4BCC0483C6B
:104CB000510508F092C08823F9F290911902809171
:104CC0001E02282F207F09F056C0C91214C09091EF
:104CD0001802D91210C0E11048C08F708061809313
:104CE0001E0288E192E00E948E1F80911E02F80150
:104CF0008683F12CC1CFE11038C06C2D8D2D0E9420
:104D00007A066C2D8D2D0E947A06E82E8111F1CF46
:104D1000D886C986888599850E944713292F2295B0
:104D20002F70903458F49F70223088F0992399F0B6
:104D3000F8019681907F79F4FE2C9ECF2A5F2F7028
:104D4000223068F0C8010E948E1FEF2CF5CF992306
:104D500011F0882389F3805E883070F3F3CF803FB1
:104D600058F3815F833040F3EDCF80911E02816064
:104D700080931E02BECFC91207C090911802D912AB
:104D800003C0EE2009F470C0C8010E9456138823A6
:104D900009F477CFEE2009F474CF80911E0280329F
:104DA00088F020911802309119023A8329839C825D
:104DB0008B8290911C029D831E828F83CE0101966F
:104DC0000E948E1F87E0F801A8E1B2E001900D92E9
:104DD0008A95E1F70E94AA2557CF90911E02292FAC
:104DE000207F51F488E192E00E948E1F87E0F50158
:104DF00011928A95E9F77DCF882309F43DCF809100
:104E000019028C11C1CF80911802D812BDCFE110C8
:104E1000BBCF9683C8010E948E1F87E0F5011192D7
:104E20008A95E9F729CF483C5105B8F7882309F45A
:104E30002BCFFE2CEE2009F424CF809119028C1187
:104E400020C080911802D8121CC080911E0280FDE3
:104E50000FC0982F907F61F08683903F31F0982F9C
:104E6000907F905F8F70892B8683C8010E948E1F70
:104E700087E0F801A8E1B2E001900D928A95E1F790
:104E8000FBCEC8010E94561381119CCF80911E0257
:104E9000816080931E02C8010E948E1FEDCEABE19F
:104EA000B0E0E5E5F7E20C9408354E8B5F8B688F38
:104EB000798F8A8F192F9B8F9111109221021D8A51
:104EC00086E0FE017696DE011F9601900D928A958E
:104ED000E1F70A8D002341F021E04F855889698967
:104EE0007A89C8010E947D130B8B1C8B87E0FE0121
:104EF0003F96DE01189601900D928A95E1F7CE015A
:104F000008960E94052681110CC087E0FE013896A4
:104F1000DE01119601900D928A95E1F74C854111C1
:104F20000BC017E080910F059091D604891332C011
:104F30006B96E4E00C9424352091D60430E0C9014E
:104F400001968770992750910F0558171906A1F0FF
:104F50004D8397E0929FD001939FB00D1124A952E9
:104F6000BB4FFE01319601900D929A95E1F7809327
:104F7000D6040E947E0CD5CF0E94AB191092D604A5
:104F800010920F0587E0E8E1F2E0DF011D928A95BB
:104F9000E9F7C7CF819FC001112489529B4F0E941E
:104FA0000526882329F280910F0590E001968770ED
:104FB000992780930F05B6CFA7E1B0E0E2EEF7E2C4
:104FC0000C9400351D861C86FE013E9686E0DF01AE
:104FD0001D928A95E9F78DE8E82E81E0F82E10E021
:104FE00000E0CC24C394D12C27E9A22E21E0B22EDC
:104FF000F70181917F018F3F09F445C0F894E82FB4
:10500000E295EF70F0E021A18F70A60102C0440F7D
:10501000551F8A95E2F7CA01922F982B91A392A16E
:105020008095892382A3789400C0E1E9F1E031E022
:10503000912C21912F3F09F4A8C0A22FA295AF7007
:10504000B0E090968C9190E02F7002C09595879576
:105050002A95E2F780FD99C0832F982A330FAE1668
:10506000BF0639F7F701319780818F3F11F00E9419
:10507000FA0950EA5A95F1F7ECE0F0E0EC0FFD1F69
:10508000E00FF11F90820F5F1F4F0430110509F0F0
:10509000AFCF48E050E0BE01645F7F4F89E892E007
:1050A0000E943F369C01892B49F088E0FE013C9626
:1050B000A9E8B2E001900D928A95E1F70091920281
:1050C00010E00F521D4F232B09F461C081E0809343
:1050D00050020E94791990934F0280934E02F12C56
:1050E000E090B004EE2009F4ACC01A8219821C8250
:1050F0001B82809184028A3008F06DC043E557E13D
:10510000BE016F5F7F4FC8010E94F411882309F42C
:1051100087C04EED56E1BE016F5F7F4FC8010E9410
:10512000F411882309F47CC04CEF56E1BE016F5F97
:105130007F4FC8010E94F411882309F471C040EB2D
:1051400056E1BE016F5F7F4FC8010E94F4118823B2
:1051500009F466C0109284028091910290E044E0CC
:1051600050E0BE016F5F7F4F8F529D4F0E943F36D0
:1051700021E020935702892B09F044C0E12C8E2DA9
:105180008F296796ECE00C941C3580E066CFF09098
:105190005002FF2009F4A3CF80914E0290914F025C
:1051A0000E946A19059708F49ACF44E050E069E834
:1051B00072E0C8010E943F36892B59F084E0E9E88B
:1051C000F2E0D80101900D928A95E1F71092500219
:1051D00087CFF12CFBCF80915102909152020E9417
:1051E0006A19843F914008F089CF80915702882343
:1051F00029F284E0FE013196DF011D928A95E9F7DC
:1052000010925702E0919102F0E0EF52FD4F898138
:105210009A81AB81BC8180839183A283B383AFCF1A
:10522000809184028F3F31F08F5F809384028A30B7
:1052300008F492CF0E947919909352028093510200
:10524000D4CFC0909102D12CF601EF52FD4F6F01E7
:10525000F80180819181A281B3818093650290934E
:105260006602A0936702B093680285E692E00E940E
:105270009806809364028091690290916A02A091DD
:105280006B02B0916C02F60180839183A283B38399
:1052900080906D0290906E02A0906F02B0907002AC
:1052A0008091530290915402A0915502B091560200
:1052B00088169906AA06BB06B1F080925302909216
:1052C0005402A0925502B09256020E941908861A02
:1052D000970AA80AB90A8092850290928602A09243
:1052E0008702B09288028BE0E1E7F2E0DE011196DE
:1052F00001900D928A95E1F78091710286958695CD
:10530000D0907202C0907302B090740200917A0241
:1053100010917B0210927B02112309F430CF10FF11
:1053200011C099819370282F220F220F922B9983FD
:1053300090FF1CC09091950491609093950460E05B
:105340000E941A1F11FF06C020E04B2D6C2D8D2DE1
:105350000E940B1512FF04C0002359F00E94FE1E8C
:1053600013FF0DCF81E08093DC0209CF0E94E5118D
:10537000E9CF0E944C09F4CFA6E0B0E0E2ECF9E2FC
:105380000C9408350E9479198C0180914C029091FF
:105390004D028017910781F019821A820E947919B3
:1053A000682F49815A81792F80E090E00E944F2731
:1053B00010934D0200934C022696E4E00C942435A1
:1053C0001F921FB61F9211248F939F93AF93BF9389
:1053D0008091BA04811113C08091BB049091BC04E8
:1053E000A091BD04B091BE044196A11DB11D809352
:1053F000BB049093BC04A093BD04B093BE04BF91C2
:10540000AF919F918F911F901FBE1F901895CDB7A0
:10541000DEB7A6970FB6F894DEBF0FBECDBF85B737
:10542000806885BF85B7806885BF84B7877F84BF64
:105430000FB6F894A8958091600088618093600011
:10544000109260000FBE80E890E00FB6F894809351
:105450006100909361000FBE88EF99E09093DB01AB
:105460008093DA010E94AF060E9450078091E2000B
:1054700084608093E20078948091CC048823A1F02A
:105480001091E9001F709091EC00892F817090FDC0
:1054900080E8182B1092E9008091E80083FD0E94BB
:1054A000DC191F701093E90082E084BD93E095BD84
:1054B0009AEF97BD80936E0010928502109286023B
:1054C00010928702109288020E94C612811102C0B7
:1054D0000E94B6128091D80080618093D8002AE1A2
:1054E0002A95F1F700C08091D900182F117080FD26
:1054F00004C00E94AF061092CC041093B004109325
:10550000B10410932C01112309F472C010924F01C1
:105510008BE1809350010E94833380912C01809114
:105520002C0194E0811190E09093920284E0891B19
:105530008093910284E90E94FA0986E60E94FA09A2
:1055400087E90E94FA0986EC0E94FA0901E911E054
:1055500047E9E42E41E0F42ED8018D918D018F3F73
:1055600011F00E94FA09E016F106B1F788E0E1EDCA
:10557000F2E0DF01282F1D922A95E9F7E9E8F2E031
:10558000DF011D928A95E9F70E944B16811102C036
:105590000E94FC1782E090E00E94553680939402AE
:1055A00084E090E00E9463369093B9048093B8043D
:1055B0000E94DC27BFEFE6E7F1E0B150E040F040A9
:1055C000E1F700C000000E94DC278091B104E4E014
:1055D0008111E0E0F0E0EF52FD4F808181FF0EC0CD
:1055E0006FEF7FEF90E080E00E9497360E940808FE
:1055F0008BE180934F01809350018FCF83E090E047
:105600000E9455360E94450D8091B004811136C12B
:1056100082E08093CC0280E8809313050E942D32B3
:105620006BE070E08BEC92E00E94A113882309F4F8
:1056300043C08091CC0265E070E081FD21C186EC21
:1056400092E00E94A1138823B9F16DE070E084EB31
:1056500092E00E94A113882379F10E94190869A39E
:105660007AA38BA39CA3DC01CB01805A9541AF4F59
:10567000BF4F80939D0490939E04A0939F04B0938A
:10568000A004E6E1F5E080E092E0DF019C011D92DC
:1056900021503040E1F7F0931D07E0931C078FEF96
:1056A0009FEF909315058093140581E08093A204E9
:1056B0008093A1041092CD0280919302811176C053
:1056C0000E944B16811104C00E94FC170E941716FD
:1056D00088E090E00E945D366B017C0184E290E0FE
:1056E0000E945536282F30E040E050E060E070E046
:1056F00080E090E000E20E947B35260137012C29F2
:1057000035294E29572920939504309396044093C8
:105710009704509398046093990470939A0480932B
:105720009B0490939C048091E10283608093E1024A
:105730002C7F61F50E94171688E090E00E945D368C
:105740006B017C0184E290E00E945536282F30E006
:1057500040E050E060E070E080E090E00E947B3547
:1057600026013701C22A35294E295729C0929504AE
:10577000309396044093970450939804609399044F
:1057800070939A0480939B0490939C040E94530905
:105790000E944C098091950480FF05C060E08695C9
:1057A00086950E941A1F81E0809393028091B00435
:1057B000811102C00E9486338DE291E09093B5047E
:1057C0008093B404DD24D3943AE0432E512C612C11
:1057D000712C8091CC0400E112E1853009F48CC079
:1057E0000E94DC2705E912E021EDE22E22E0F22EF4
:1057F0002DE932E0D701F80191918D912E173F07E5
:1058000009F484C09817C1F33090B004C12CD701BB
:10581000BD907D01F80181908F018B1431F18B24B3
:10582000A12C99249394882D8921B9F03320A9F0D3
:10583000A982CA820E9479199C838B83F1E0FD833F
:1058400091E08B2D892109F490E09E8349815A8152
:105850006B817C818D810E944F27A394990C26E057
:10586000A212E1CFF8013197B082C39438E0C3129D
:10587000CECF0E94130ACC24C3944DC080E0C9CE81
:1058800081EC92E0DECE8091CC04843031F10E9434
:10589000CB131092BA0448E150E080E40FB6F894BC
:1058A000A895409360000FBE8093600083B7817F0E
:1058B000846083BF83B7816083BF7894889583B702
:1058C0008E7F83BF0FB6F894A895809160008861A1
:1058D00080936000109260000FBE8091CB048823FB
:1058E00059F00E94DC27E1EDF2E0819181118CC535
:1058F00092E0E93DF907C9F78091CC04853009F4BD
:10590000C2CF0E94AB190E94E3086ACF98137CCFE4
:105910000E94BC29C12C8091E002882309F464C054
:105920008091DF02E0919504E695E695E81BE0930F
:10593000DB02823009F002C2F0E0E951FD4FE49150
:105940000E2F10E091EDE92E91E1F92E8091DC020D
:10595000882361F01092DC020E94F31E9093DA0219
:105960008093D9021092DE021092DD020E94F31E93
:105970009C01E091D902F091DA028E1B9F0B8F3FC0
:105980009F4790F580919F028823B1F010929F026B
:1059900080919D0290919E02281B390B2F3F3F471B
:1059A00058F4805D9A4890939E0280939D02809166
:1059B000E10288608093E102A090DD02B090DE02F7
:1059C000E00FF11FF093DA02E093D90289ED92E043
:1059D000F70109958091DD029091DE02892B21F477
:1059E000AB2811F0D0929F028091A204882309F481
:1059F00094C08091CE029091CF020E946A19C29702
:105A000008F461C00E9479199093CF028093CE026E
:105A100086E195E090931D0780931C078091B00468
:105A2000882309F450C28CE093E00E94D80D809145
:105A3000A0020E94480D823009F4F4C108F0EAC1C6
:105A40008111EDC187E093E00E94180E8091AB02B6
:105A5000805D0E94580D8AE193E00E94D80D8091EC
:105A6000AA02805D0E94580D86E193E00E94D80D45
:105A70008091A8029091A9022091370130913801BC
:105A80008217930709F0D4C12091A702203209F0B0
:105A9000CFC1E1EAF2E08F0181918032E1F3F801B8
:105AA00001900020E9F79F012150310979010E157D
:105AB0001F0508F402C284E193E00E94D80D809192
:105AC00039010E94580D8091140590911505892B7C
:105AD00009F0FEC18091A1048823F9F00E94190801
